:020000040800F2
:1000000000000220D12400088D2000089320000861
:10001000992000089F200008A5200008000000008B
:10002000000000000000000000000000AB200008FD
:10003000B920000800000000C7200008D5200008F3
:100040002125000821250008212500082125000878
:100050002125000821250008212500082125000868
:100060002125000821250008212500082125000858
:100070002125000821250008212500082125000848
:100080002125000821250008212500080000000086
:100090000000000000000000000000002125000812
:1000A000E1200008F5200008092100081D210008B2
:1000B0002125000821250008212500082125000808
:1000C00021250008212500082125000821250008F8
:1000D000212500082125000831210008000000002A
:1000E0002125000821250008212500080000000026
:1000F00000000000000000000000000021250008B2
:100100000000000021250008212500082125000805
:1001100000000000000000000000000000000000DF
:100120002125000821250008212500082125000897
:100130002125000800000000000000000000000071
:100140000000000000000000000000002125000861
:100150002125000821250008212500084521000847
:1001600021250008212500080000000000000000F3
:10017000000000000000000000000000000000007F
:100180000000000021250008000000000000000021
:080190002125000821250008CB
:1001A00010B5054C237833B9044B13B10448AFF3B1
:1001B00000800123237010BDF80100200000000022
:1001C000F499000808B5034B1BB103490348AFF38A
:1001D000008008BD00000000FC010020F499000828
:1001E000034613F8012B002AFBD1181A0138704777
:1001F00001F0FF01102A2BDB10F0070F08D010F8D8
:10020000013B013A8B422DD010F0070F42B3F6D1DB
:10021000F0B441EA012141EA014122F007047FF0F4
:1002200000070023F0E80256083C85EA010586EA4B
:10023000010685FA47F5A3FA87F586FA47F6A5FA87
:1002400087F68EB9EED1F0BC01F0FF0102F0070293
:1002500032B110F8013B013A83EA010313B1F8D13E
:100260000020704701387047002D06BF354603381F
:10027000073815F0010F07D1013015F4807F02BF58
:10028000013015F4C03F0130F0BC0138704700BFA9
:1002900081F0004102E000BF83F0004330B54FEA37
:1002A00041044FEA430594EA050F08BF90EA020FA4
:1002B0001FBF54EA000C55EA020C7FEA645C7FEA37
:1002C000655C00F0E2804FEA5454D4EB5555B8BF5A
:1002D0006D420CDD2C4480EA020281EA030382EACB
:1002E000000083EA010180EA020281EA0303362D5D
:1002F00088BF30BD11F0004F4FEA01314FF4801C30
:100300004CEA113102D0404261EB410113F0004F41
:100310004FEA03334CEA133302D0524263EB4303F8
:1003200094EA050F00F0A780A4F10104D5F1200E96
:100330000DDB02FA0EFC22FA05F2801841F10001F1
:1003400003FA0EF2801843FA05F359410EE0A5F1C5
:1003500020050EF1200E012A03FA0EFC28BF4CF0F6
:10036000020C43FA05F3C01851EBE37101F00045AC
:1003700007D54FF0000EDCF1000C7EEB00006EEBB9
:100380000101B1F5801F1BD3B1F5001F0CD3490843
:100390005FEA30004FEA3C0C04F101044FEA44529A
:1003A00012F5800F80F09A80BCF1004F08BF5FEA21
:1003B000500C50F1000041EB045141EA050130BD01
:1003C0005FEA4C0C404141EB0101013C28BFB1F513
:1003D000801FE9D291F0000F04BF01460020B1FA5E
:1003E00081F308BF2033A3F10B03B3F120020CDA31
:1003F0000C3208DD02F1140CC2F10C0201FA0CF00F
:1004000021FA02F10CE002F11402D8BFC2F1200C73
:1004100001FA02F120FA0CFCDCBF41EA0C01904029
:10042000E41AA2BF01EB0451294330BD6FEA040472
:100430001F3C1CDA0C340EDC04F11404C4F120025D
:1004400020FA04F001FA02F340EA030021FA04F36F
:1004500045EA030130BDC4F10C04C4F1200220FAC6
:1004600002F001FA04F340EA0300294630BD21FA04
:1004700004F0294630BD94F0000F83F4801306BFCA
:1004800081F480110134013D4EE77FEA645C18BFBE
:100490007FEA655C29D094EA050F08BF90EA020F55
:1004A00005D054EA000C04BF1946104630BD91EA4D
:1004B000030F1EBF0021002030BD5FEA545C05D150
:1004C0004000494128BF41F0004130BD14F580048F
:1004D0003CBF01F5801130BD01F0004545F0FE4103
:1004E00041F470014FF0000030BD7FEA645C1ABF38
:1004F000194610467FEA655C1CBF0B46024650EA6F
:10050000013406BF52EA033591EA030F41F400219A
:1005100030BD00BF90F0000F04BF0021704730B520
:100520004FF4806404F132044FF000054FF00001F5
:1005300050E700BF90F0000F04BF0021704730B5B6
:100540004FF4806404F1320410F0004548BF40428B
:100550004FF000013EE700BF42004FEAE2014FEAE0
:1005600031014FEA02701FBF12F07F4393F07F4FBB
:1005700081F06051704732F07F4208BF704793F0BE
:100580007F4F04BF41F40021704730B54FF46074D1
:1005900001F0004521F000411CE700BF50EA0102D4
:1005A00008BF704730B54FF000050AE050EA01027D
:1005B00008BF704730B511F0004502D5404261EBED
:1005C00041014FF4806404F132045FEA915C3FF42E
:1005D000D8AE4FF003025FEADC0C18BF03325FEACB
:1005E000DC0C18BF033202EBDC02C2F1200300FA7C
:1005F00003FC20FA02F001FA03FE40EA0E0021FAA1
:1006000002F11444BDE600BF70B54FF0FF0C4CF48E
:10061000E06C1CEA11541DBF1CEA135594EA0C0F40
:1006200095EA0C0F00F0DEF82C4481EA030621EA7B
:100630004C5123EA4C5350EA013518BF52EA0335B6
:1006400041F4801143F4801338D0A0FB02CE4FF068
:100650000005E1FB02E506F00042E0FB03E54FF098
:100660000006E1FB03569CF0000F18BF4EF0010E90
:10067000A4F1FF04B6F5007F64F5407404D25FEA8C
:100680004E0E6D4146EB060642EAC62141EA55513F
:100690004FEAC52040EA5E504FEACE2EB4F1FD0C81
:1006A00088BFBCF5E06F1ED8BEF1004F08BF5FEAFF
:1006B000500E50F1000041EB045170BD06F00046B1
:1006C00046EA010140EA020081EA0301B4EB5C045E
:1006D000C2BFD4EB0C0541EA045170BD41F4801156
:1006E0004FF0000E013C00F3AB8014F1360FDEBF7B
:1006F000002001F0004170BDC4F10004203C35DA57
:100700000C341BDC04F11404C4F1200500FA05F3D9
:1007100020FA04F001FA05F240EA020001F000427A
:1007200021F0004110EBD37021FA04F642EB0601F0
:100730005EEA430E08BF20EAD37070BDC4F10C041A
:10074000C4F1200500FA04F320FA05F001FA04F2DE
:1007500040EA020001F0004110EBD37041F10001CA
:100760005EEA430E08BF20EAD37070BDC4F12005D5
:1007700000FA05F24EEA020E20FA04F301FA05F23D
:1007800043EA020321FA04F001F0004121FA04F2E5
:1007900020EA020000EBD3705EEA430E08BF20EAB5
:1007A000D37070BD94F0000F0FD101F000464000EF
:1007B00041EB010111F4801F08BF013CF7D041EA71
:1007C000060195F0000F18BF704703F00046520075
:1007D00043EB030313F4801F08BF013DF7D043EA46
:1007E0000603704794EA0C0F0CEA135518BF95EAFC
:1007F0000C0F0CD050EA410618BF52EA4306D1D183
:1008000081EA030101F000414FF0000070BD50EAA1
:10081000410606BF1046194652EA430619D094EA2B
:100820000C0F02D150EA013613D195EA0C0F05D115
:1008300052EA03361CBF104619460AD181EA030169
:1008400001F0004141F0FE4141F470014FF0000021
:1008500070BD41F0FE4141F4780170BD70B54FF0BC
:10086000FF0C4CF4E06C1CEA11541DBF1CEA13553C
:1008700094EA0C0F95EA0C0F00F0A7F8A4EB05041E
:1008800081EA030E52EA03354FEA013100F0888015
:100890004FEA03334FF0805545EA131343EA1263DE
:1008A0004FEA022245EA111545EA10654FEA002693
:1008B0000EF000419D4208BF964244F1FD0404F54C
:1008C000407402D25B084FEA3202B61A65EB0305A8
:1008D0005B084FEA32024FF480104FF4002CB6EB65
:1008E000020E75EB030E22BFB61A754640EA0C00E5
:1008F0005B084FEA3202B6EB020E75EB030E22BF25
:10090000B61A754640EA5C005B084FEA3202B6EB65
:10091000020E75EB030E22BFB61A754640EA9C0024
:100920005B084FEA3202B6EB020E75EB030E22BFF4
:10093000B61A754640EADC0055EA060E18D04FEAB2
:10094000051545EA16754FEA06164FEAC30343EA52
:1009500052734FEAC2025FEA1C1CC0D111F4801F1F
:100960000BD141EA00014FF000004FF0004CB6E718
:1009700011F4801F04BF01430020B4F1FD0C88BFB7
:10098000BCF5E06F3FF6AFAEB5EB030C04BFB6EBC2
:10099000020C5FEA500C50F1000041EB045170BDB5
:1009A0000EF0004E4EEA113114EB5C04C2BFD4EBE2
:1009B0000C0541EA045170BD41F480114FF0000E66
:1009C000013C90E645EA060E8DE60CEA135594EAE2
:1009D0000C0F08BF95EA0C0F3FF43BAF94EA0C0FE5
:1009E0000AD150EA01347FF434AF95EA0C0F7FF45A
:1009F00025AF104619462CE795EA0C0F06D152EAAE
:100A000003353FF4FDAE1046194622E750EA410691
:100A100018BF52EA43067FF4C5AE50EA41047FF4A2
:100A20000DAF52EA43057FF4EBAE12E74FF0FF3C07
:100A300006E000BF4FF0010C02E000BF4FF0010CD8
:100A40004DF804CD4FEA410C7FEA6C5C4FEA430C51
:100A500018BF7FEA6C5C1BD001B050EA410C0CBFA0
:100A600052EA430C91EA030F02BF90EA020F002002
:100A7000704710F1000F91EA030F58BF994208BF69
:100A800090422CBFD8176FEAE37040F00100704726
:100A90004FEA410C7FEA6C5C02D150EA013C07D17D
:100AA0004FEA430C7FEA6C5CD6D152EA033CD3D0C8
:100AB0005DF8040B704700BF8446104662468C46C2
:100AC0001946634600E000BF01B5FFF7B7FF0028F5
:100AD00048BF10F1000F01BD4DF808EDFFF7F4FF1E
:100AE0000CBF012000205DF808FB00BF4DF808EDA9
:100AF000FFF7EAFF34BF012000205DF808FB00BFCC
:100B00004DF808EDFFF7E0FF94BF012000205DF8ED
:100B100008FB00BF4DF808EDFFF7CEFF94BF0120A2
:100B200000205DF808FB00BF4DF808EDFFF7C4FF9B
:100B300034BF012000205DF808FB00BF4FEA410CE4
:100B40007FEA6C5C02D150EA013C0AD14FEA430CC7
:100B50007FEA6C5C02D152EA033C02D14FF0000004
:100B600070474FF0010070474FEA410212F5001242
:100B700015D211D56FF47873B3EB625212D94FEAE4
:100B8000C12343F0004343EA505311F0004F23FACE
:100B900002F018BF404270474FF00000704750EA23
:100BA000013005D111F0004008BF6FF000407047E0
:100BB0004FF00000704700BF4A0011D212F500123A
:100BC00011D20DD56FF47873B3EB62520ED44FEAA5
:100BD000C12343F0004343EA505323FA02F0704725
:100BE0004FF00000704750EA013002D14FF0FF3063
:100BF00070474FF0000070474FEA4102B2F1E04306
:100C000024BFB3F5001CDCF1FE5C0DD901F0004CF3
:100C10004FEAC0024CEA5070B2F1004F40EB830043
:100C200008BF20F00100704711F0804F21D113F16F
:100C30003872BCBF01F00040704741F480114FEAA8
:100C40005252C2F11802C2F1200C10FA0CF320FA31
:100C500002F018BF40F001004FEAC1234FEAD3234E
:100C600003FA0CFC40EA0C0023FA02F34FEA4303B8
:100C7000CCE77FEA625307D150EA01331EBF4FF041
:100C8000FE4040F44000704701F0004040F0FE405C
:100C900040F40000704700BF53B94AB9002908BFAB
:100CA00000281CBF4FF0FF314FF0FF3000F0AAB911
:100CB000ADF1080C6DE904CE00F03CF8DDF804E07D
:100CC000DDE9022304B0704738B500220023044652
:100CD0000D46FFF70BFF28B920462946BDE83840EE
:100CE00000F00AB8204605F1004100F005F8404246
:100CF00061EB410138BD00BFD0B50C4B0022064668
:100D00000F46FFF781FCFFF757FF0446FFF702FC91
:100D1000074B0022FFF778FC02460B463046394667
:100D2000FFF7BAFAFFF748FF2146D0BD0000F03DBB
:100D30000000F0412DE9F047089D04468E46002B47
:100D40004DD18A42944669D9B2FA82F252B101FA7F
:100D500002F3C2F1200120FA01F10CFA02FC41EA8F
:100D6000030E94404FEA1C48210CBEFBF8F61FFA14
:100D70008CF708FB16E341EA034306FB07F19942AF
:100D80000AD91CEB030306F1FF3080F01F81994262
:100D900040F21C81023E63445B1AA4B2B3FBF8F03C
:100DA00008FB103344EA034400FB07F7A7420AD9C3
:100DB0001CEB040400F1FF3380F00A81A74240F2EB
:100DC00007816444023840EA0640E41B00261DB156
:100DD000D4400023C5E900433146BDE8F0878B428B
:100DE00009D9002D00F0EF800026C5E9000130464A
:100DF0003146BDE8F087B3FA83F6002E4AD18B4224
:100E000002D3824200F2F980841A61EB03030120CD
:100E10009E46002DE0D0C5E9004EDDE702B9FFDEB9
:100E2000B2FA82F2002A40F09280A1EB0C014FEA64
:100E30001C471FFA8CFE0126200CB1FBF7F307FBC1
:100E4000131140EA01410EFB03F0884208D91CEB64
:100E5000010103F1FF3802D2884200F2CB80434601
:100E6000091AA4B2B1FBF7F007FB101144EA0144E0
:100E70000EFB00FEA64508D91CEB040400F1FF316F
:100E800002D2A64500F2BB800846A4EB0E0440EA5D
:100E900003409CE7C6F12007B34022FA07FC4CEA66
:100EA000030C20FA07F401FA06F31C43F9404FEA59
:100EB0001C4900FA06F3B1FBF9F8200C1FFA8CFE6E
:100EC00009FB181140EA014108FB0EF0884202FAC2
:100ED00006F20BD91CEB010108F1FF3A80F0888083
:100EE000884240F28580A8F102086144091AA4B240
:100EF000B1FBF9F009FB101144EA014100FB0EFEC1
:100F00008E4508D91CEB010100F1FF346CD28E45EF
:100F10006AD90238614440EA0840A0FB0294A1EB80
:100F20000E01A142C846A64656D353D05DB1B3EBDD
:100F3000080261EB0E0101FA07F722FA06F3F1400D
:100F40001F43C5E9007100263146BDE8F087C2F1B4
:100F50002003D8400CFA02FC21FA03F3914001432C
:100F60004FEA1C471FFA8CFEB3FBF7F007FB103665
:100F70000B0C43EA064300FB0EF69E4204FA02F411
:100F800008D91CEB030300F1FF382FD29E422DD964
:100F9000023863449B1B89B2B3FBF7F607FB163399
:100FA00041EA034106FB0EF38B4208D91CEB010119
:100FB00006F1FF3816D28B4214D9023E6144C91A99
:100FC00046EA004638E72E46284605E70646E3E6A9
:100FD0001846F8E64B45A9D2B9EB020864EB0C0EB3
:100FE0000138A3E74646EAE7204694E74046D1E7C2
:100FF000D0467BE7023B614432E7304609E7644470
:10100000023842E7704700BF80B483B000AF786019
:101010007B680C4A93420FD10B4B1B889BB25A1C26
:1010200091B2094A1180B3F5167F05D9064B00220B
:101030001A80064B00221A7000BF0C37BD465DF8BF
:10104000047B7047300200202E0200202D02002079
:1010500080B483B000AF786002E07B68013B7B60C6
:101060007B68002BF9D100BF00BF0C37BD465DF88F
:10107000047B704780B586B000AF02233B6101233B
:10108000BB604FF400437B603B1D1946074801F0ED
:1010900083FC4FF480437B603B1D1946034801F0FD
:1010A0007BFC00BF1837BD4680BD00BF0004024076
:1010B00080B582B000AF78600B467B807B880122D0
:1010C0001946786801F004FE00BF0837BD4680BDB0
:1010D00080B582B000AF78600B467B807B880022B1
:1010E0001946786801F0F4FD00BF0837BD4680BDA1
:1010F00080B584B000AF78600B467B807B88194652
:10110000786801F0CDFD0346FB73FB7B1846103772
:10111000BD4680BD80B582B000AF0346FB71FB7950
:10112000012B05D14FF480510748FFF7C1FF07E0BD
:10113000FB79022B04D14FF480410348FFF7B8FF3D
:1011400000BF0837BD4680BD0004024080B582B0B4
:1011500000AF0346FB71FB79012B05D14FF48051A1
:101160000748FFF7B5FF07E0FB79022B04D14FF4E6
:1011700080410348FFF7ACFF00BF0837BD4680BD84
:101180000004024080B582B000AF0346FB71FB79DA
:10119000012B05D14FF400510748FFF789FF07E005
:1011A000FB79022B04D14FF400410348FFF780FF85
:1011B00000BF0837BD4680BD0004024080B582B044
:1011C00000AF0346FB71FB79012B05D14FF40051B1
:1011D0000748FFF77DFF07E0FB79022B04D14FF4AE
:1011E00000410348FFF774FF00BF0837BD4680BDCC
:1011F0000004024080B582B000AF03460A46FB718E
:101200001346BB71BB79002B04D0FB791846FFF75E
:1012100081FF03E0FB791846FFF798FF00BF08370E
:10122000BD4680BD80B588B000AF0346FB71022388
:10123000BB6100233B6101237B61FB79012B09D159
:101240004FF48053FB6007F10C031946094801F085
:10125000A3FB0BE0FB79022B08D14FF48043FB602A
:1012600007F10C031946034801F096FB00BF203735
:10127000BD4680BD0004024080B588B000AF034683
:10128000FB710223BB6101233B6100237B61FB797E
:10129000012B09D14FF48053FB6007F10C03194671
:1012A000094801F079FB0BE0FB79022B08D14FF4E0
:1012B0008043FB6007F10C031946034801F06CFB07
:1012C00000BF2037BD4680BD0004024080B582B01B
:1012D00000AF0346FB71FB791846FFF753FF4FF44D
:1012E000FA60FFF7B5FEFB791846FFF767FF00BF0E
:1012F0000837BD4680BD80B582B000AF0346FB71A4
:10130000FB791846FFF706FFFB791846FFF73AFF0F
:1013100000BF0837BD4680BD80B582B000AF034630
:10132000FB71FB791846FFF7F5FEFB791846FFF7CE
:1013300029FF4FF4FA60FFF78BFEFB791846FFF7A1
:1013400005FF4FF4FA60FFF783FEFB791846FFF7BD
:1013500035FF4FF47A60FFF77BFE00BF0837BD46CC
:1013600080BD80B582B000AF0346FB71FB791846A3
:10137000FFF7ECFEFB791846FFF704FF4FF4FA6025
:10138000FFF766FEFB791846FFF7C4FE4FF4FA60DC
:10139000FFF75EFE00BF0837BD4680BD80B586B052
:1013A00000AF0346FB71FB791846FFF73BFF4FF494
:1013B000FA60FFF74DFEFB791846FFF7E3FE0023C6
:1013C000FB754FF4FA60FFF743FE0A233B6113E01D
:1013D000FB79184600F0DAF80346002B0CBF012316
:1013E0000023DBB2FB60FB68002B02D00123FB75FE
:1013F00005E03B69013B3B613B69002BE8DCFB7985
:101400001846FFF7DBFEFB791846FFF735FFFB7D3B
:1014100018461837BD4680BD80B582B000AF034680
:10142000FB71FB791846FFF7FDFEFB791846FFF7C5
:101430004DFFFB791846FFF71FFF4FF4FA60FFF7E7
:1014400007FE00BF0837BD4680BD80B584B000AF41
:101450000346FB710B46BB7113467B717B79002BF6
:1014600004D0BB7943F00103BB7103E0BB7923F0E7
:101470000103BB71FB791846FFF7A0FE0723FB6051
:1014800019E00122FB6802FA03F35AB297F9063019
:1014900013405BB2DAB2FB7911461846FFF7AAFE99
:1014A0004FF4FA60FFF7D4FDFB791846FFF70EFF03
:1014B000FB68013BFB60FB68002BE2DA00BF00BF6A
:1014C0001037BD4680BD80B584B000AF03460A46E4
:1014D000FB711346BB71FB791846FFF76FFE0723BC
:1014E000FB6019E00122FB6802FA03F35AB297F994
:1014F000063013405BB2DAB2FB7911461846FFF7AB
:1015000079FE4FF4FA60FFF7A3FDFB791846FFF769
:10151000DDFEFB68013BFB60FB68002BE2DA00BFED
:1015200000BF1037BD4680BD80B582B000AF034616
:10153000FB71FB791846FFF79FFEFB791846FFF712
:1015400005FE4FF4FA60FFF783FDFB791846FFF7BD
:1015500019FE4FF47A60FFF77BFDFB791846FFF721
:10156000F5FD4FF47A60FFF773FDFB791846FFF73E
:1015700025FEFB791846FFF77FFE4FF4FA60FFF770
:1015800067FD00BF0837BD4680BD000080B582B052
:1015900000AF0346FB71FB79012B06D14FF480515C
:1015A0000948FFF7A5FD03460AE0FB79022B06D1A7
:1015B0004FF480410448FFF79BFD034600E0002301
:1015C00018460837BD4680BD0004024080B584B08F
:1015D00000AF03460A46FB711346BB71FB79184600
:1015E000FFF7ECFD0723FB6019E00122FB6802FA1C
:1015F00003F35AB297F9063013405BB2DAB2FB79C3
:1016000011461846FFF7F6FD4FF4FA60FFF720FD8C
:10161000FB791846FFF75AFEFB68013BFB60FB684D
:10162000002BE2DA00BF00BF1037BD4680BD80B599
:1016300084B000AF0346FB710023FB72FB791846B0
:10164000FFF7F0FD0823FB601DE0FB791846FFF76C
:1016500099FDFB7A5B00FB72FB791846FFF796FF5A
:101660000346002B03D0FB7A43F00103FB724FF4D7
:10167000FA60FFF7EDFCFB791846FFF79FFD4FF48A
:10168000FA60FFF7E5FCFB685A1EFA60002BDCD11C
:10169000FB791846FFF7F0FDFB7A18461037BD4678
:1016A00080BD000090B585B000AF044608461146E5
:1016B0001A462346FB710346BB710B467B711346EA
:1016C0003B710123FB73FB791846FFF725FEB979BF
:1016D000FB7900221846FFF7B8FEFB791846FFF7A2
:1016E0005DFE0346002B04D11E4804F04FFB00238F
:1016F000FB734FF4FA60FFF7ABFC7A79FB79114684
:101700001846FFF7E0FEFB791846FFF747FE034651
:10171000002B04D1134804F039FB0023FB734FF472
:10172000FA60FFF795FC3A79FB7911461846FFF706
:101730004DFFFB791846FFF731FE0346002B04D11D
:10174000084804F023FB0023FB734FF4FA60FFF713
:101750007FFCFB791846FFF704FEFB7B1846143725
:10176000BD4690BD109A000890B585B000AF034605
:10177000FB710B46BB7113467B710023FB81FB7928
:101780001846FFF7B8FDFB791846FFF7C5FDB97994
:10179000FB7900221846FFF758FEFB791846FFF741
:1017A000FDFD7A79FB7911461846FFF78CFEFB792F
:1017B0001846FFF7F3FD4FF4FA60FFF749FCFB7999
:1017C0001846FFF7A9FDB979FB7901221846FFF702
:1017D0003CFEFB791846FFF7E1FD4FF4FA60FFF796
:1017E00037FCFB791846FFF722FF0346FB81FB79A4
:1017F0001846FFF799FE4FF4FA60FFF729FCFB89C2
:101800001B021CB2FB791846FFF711FF03461BB2FF
:1018100023431BB2FB81FB791846FFF7FDFDFB79E3
:101820001846FFF79EFDFB8918461437BD4690BD4C
:1018300080B582B000AF7860391D4FF6FF7301228A
:10184000034802F026FB7B6818460837BD4680BD7A
:101850007802002080B582B000AF00F063FE00F097
:101860002FF800F06FF900F0C9F800F041F900F02E
:1018700015F900F08FF801220E490F4802F09BFB8A
:10188000FFF7F8FB0220FFF736FD0C4804F07EFA64
:101890000223FB71D023BB713B237B7100233B717F
:1018A000FB79D021184600F0E7F94FF4FA7000F008
:1018B000ABFEEDE72C02002078020020189A000809
:1018C00080B594B000AF07F1200330220021184604
:1018D00003F03EFB07F10C0300221A605A609A6085
:1018E000DA601A610023BB60284B1B6C274A43F067
:1018F00080531364254B1B6C03F08053BB60BB68A3
:1019000000237B60224B1B68214A43F44043136051
:101910001F4B1B6803F440437B607B6802233B62E0
:101920000123FB6210233B630223BB630023FB63A1
:1019300010233B644FF4A8737B640423BB6404232B
:10194000FB6407F12003184601F0DCF90346002B85
:1019500001D000F08BF90F23FB6002233B610023D1
:101960007B614FF48053BB610023FB6107F10C03E3
:101970000221184601F03EFC0346002B01D000F086
:1019800075F900BF5037BD4680BD00BF003802402A
:101990000070004080B500AF00220021262000F03A
:1019A00032FF262000F04BFF00220021472000F0EC
:1019B0002AFF472000F043FF002200211B2000F0F7
:1019C00022FF1B2000F03BFF002200211A2000F024
:1019D0001AFF1A2000F033FF00220021192000F026
:1019E00012FF192000F02BFF00220021182000F028
:1019F0000AFF182000F023FF00BF80BD80B586B02D
:101A000000AF07F1080300221A605A609A60DA609A
:101A10003B4600221A605A601E4B1F4A1A601D4B3B
:101A200040F247325A601B4B00229A60194B6322E6
:101A3000DA60184B00221A61164B00225A61154BCE
:101A400000229A61134801F0F5FD0346002B01D0F6
:101A500000F00CF94FF48053BB6007F108031946FE
:101A60000C4801F03EFF0346002B01D000F0FEF8C9
:101A700000233B6000237B603B461946054802F08B
:101A800039F90346002B01D000F0F0F800BF1837F9
:101A9000BD4680BD300200200000014080B500AF8F
:101AA000114B124A1A60104B4FF416525A600E4BEB
:101AB00000229A600C4B0022DA600B4B00221A6164
:101AC000094B0C225A61084B00229A61064B0022F6
:101AD000DA61054802F090F90346002B01D000F0CE
:101AE000C5F800BF80BD00BF780200200044004060
:101AF00080B500AF114B124A1A60104B4FF41652CA
:101B00005A600E4B00229A600C4B0022DA600B4B9D
:101B100000221A61094B0C225A61084B00229A617B
:101B2000064B0022DA61054802F066F90346002BF5
:101B300001D000F09BF800BF80BD00BFBC020020B8
:101B40000014014080B58AB000AF07F114030022F1
:101B50001A605A609A60DA601A6100233B613F4B59
:101B60001B6B3E4A43F0040313633C4B1B6B03F0B7
:101B700004033B613B690023FB60384B1B6B374A16
:101B800043F080031363354B1B6B03F08003FB6052
:101B9000FB680023BB60314B1B6B304A43F00103F1
:101BA00013632E4B1B6B03F00103BB60BB68002368
:101BB0007B602A4B1B6B294A43F002031363274BBC
:101BC0001B6B03F002037B607B680022202124480A
:101BD00001F07EF800224FF43041224801F078F8FD
:101BE0004FF400537B614FF40413BB610023FB618E
:101BF00007F1140319461C4800F0CEFE20237B6138
:101C00000123BB610023FB6100233B6207F1140346
:101C10001946134800F0C0FE4FF430437B610123A6
:101C2000BB610023FB6100233B6207F114031946EB
:101C30000C4800F0B1FE4FF480437B614FF48813F1
:101C4000BB610023FB6107F114031946054800F04E
:101C5000A3FE00BF2837BD4680BD00BF003802404C
:101C600000000240000402400008024080B400AFBF
:101C700072B600BFFEE7000080B588B000AF034633
:101C80000A46FB711346BB7100237B8300233B8311
:101C90000023FB8200233B8200237B820023BB8244
:101CA00000233B8100237B810023BB810023FB6158
:101CB000B979FB793B221846FFF756FD03467B8333
:101CC000B979FB793D221846FFF74EFD03463B8369
:101CD000B979FB793F221846FFF746FD0346FB82A0
:101CE000B7F91A303B82B7F918307B82B7F9163052
:101CF000BB820023FB6116E0FB695B0020333B44A1
:101D000033F9103CFA69D2B21146184600F02CFBA8
:101D100003461A46FB695B0020333B4423F8182C2A
:101D2000FB690133FB61FB69022BE5DDB7F9082094
:101D3000B7F90A309A4234D1B7F90A20B7F90C3012
:101D40009A422ED1B7F90830002B2AD0B979F87908
:101D500080236B22FFF7A6FC0A2000F055FCB9791E
:101D6000F87900236B22FFF79DFC0A2000F04CFC61
:101D7000B979F87900231922FFF794FCB979F87939
:101D800000231B22FFF78EFCB979F87900231C226F
:101D9000FFF788FC554B1B780133DAB2534B1A70AE
:101DA00045E0B7F90820B7F90A309A4205D0B7F9EB
:101DB0000A20B7F90C309A4234D1B7F908304C4AAE
:101DC000934204D0B7F90C30494A93422ED1B979E5
:101DD000F87980236B22FFF765FC0A2000F014FCE1
:101DE000B979F87900236B22FFF75CFC0A2000F038
:101DF0000BFCB979F87900231922FFF753FCB97964
:101E0000F87900231B22FFF74DFCB979F8790023FC
:101E10001C22FFF747FC354B1B780133DAB2334BFA
:101E20001A7003E0314B00221A7000E000BFB7F9CE
:101E30000820B7F90A309A420FD1B7F90A20B7F94A
:101E40000C309A4209D1B7F90830002B05D1294B43
:101E50001B780133DAB2274B1A70264B1B78322BD2
:101E600029D9244B00221A70B979F87980236B2282
:101E7000FFF718FC0A2000F0C7FBB979F8790023B6
:101E80006B22FFF70FFC0A2000F0BEFBB979F8794E
:101E900000231922FFF706FCB979F87900231B22E9
:101EA000FFF700FCB979F87900231C22FFF7FAFB51
:101EB000642000F0A9FB0023FB610CE0FB695B00E0
:101EC00020333B4433F9183C19460B4803F0C2FE5B
:101ED000FB690133FB61FB69022BEFDD0A2003F094
:101EE000D1FE00BF2037BD4680BD00BF00030020EB
:101EF0000180FFFF01030020A09A000880B582B096
:101F000000AF00237B60104B5B6C0F4A43F48043AF
:101F100053640D4B5B6C03F480437B607B68002350
:101F20003B60094B1B6C084A43F080531364064B1B
:101F30001B6C03F080533B603B68072000F058FCAB
:101F400000BF0837BD4680BD0038024080B485B070
:101F500000AF78607B681B680B4A93420DD1002369
:101F6000FB600A4B5B6C094A43F001035364074B67
:101F70005B6C03F00103FB60FB6800BF1437BD46D8
:101F80005DF8047B704700BF00000140003802404C
:101F900080B58CB000AF786007F11C0300221A6096
:101FA0005A609A60DA601A617B681B68324A934211
:101FB0002CD10023BB61314B1B6C304A43F40033FE
:101FC00013642E4B1B6C03F40033BB61BB6900230D
:101FD0007B612A4B1B6B294A43F001031363274B98
:101FE0001B6B03F001037B617B690C23FB61022304
:101FF0003B6200237B620323BB620723FB6207F182
:102000001C0319461E4800F0C7FC30E07B681B68C3
:102010001C4A93422BD100233B61184B5B6C174A3F
:1020200043F020035364154B5B6C03F020033B61CA
:102030003B690023FB60114B1B6B104A43F0040308
:1020400013630E4B1B6B03F00403FB60FB68C023A0
:10205000FB6102233B6200237B620323BB620823F4
:10206000FB6207F11C031946074800F095FC00BF0E
:102070003037BD4680BD00BF0044004000380240FC
:1020800000000240001401400008024080B400AF8C
:10209000FEE780B400AFFEE780B400AFFEE780B497
:1020A00000AFFEE780B400AFFEE780B400AF00BF32
:1020B000BD465DF8047B704780B400AF00BFBD46ED
:1020C0005DF8047B704780B400AF00BFBD465DF88B
:1020D000047B704780B500AF00F076FA00BF80BD8A
:1020E00080B500AF024801F0F4FA00BF80BD00BF28
:1020F0003002002080B500AF024801F0EAFA00BFCC
:1021000080BD00BF3002002080B500AF024801F062
:10211000E0FA00BF80BD00BF3002002080B500AFF4
:10212000024801F0D6FA00BF80BD00BF3002002097
:1021300080B500AF024801F06FFF00BF80BD00BF57
:102140007802002080B500AF024801F065FF00BFB3
:1021500080BD00BFBC02002080B400AF0123184640
:10216000BD465DF8047B704780B582B000AF7860F3
:10217000396002F0B5FE034616221A604FF0FF33B5
:1021800018460837BD4680BD80B582B000AF786084
:102190004FF0FF317868FFF7E7FFFEE780B586B0C4
:1021A00000AFF860B9607A6000237B610AE0AFF3AA
:1021B00000800146BB685A1CBA60CAB21A707B69BB
:1021C00001337B617A697B689A42F0DB7B68184651
:1021D0001837BD4680BD80B586B000AFF860B960E5
:1021E0007A6000237B6109E0BB685A1CBA601B78E7
:1021F0001846FFF71DFB7B6901337B617A697B68B9
:102200009A42F1DB7B6818461837BD4680BD80B422
:1022100083B000AF78604FF0FF3318460C37BD46EF
:102220005DF8047B704780B483B000AF786039609C
:102230003B684FF400525A60002318460C37BD46E5
:102240005DF8047B704780B483B000AF78600123F1
:1022500018460C37BD465DF8047B704780B485B0E6
:1022600000AFF860B9607A60002318461437BD46A5
:102270005DF8047B7047000080B586B000AF7860E1
:10228000144A154BD31A7B617B693B61134B1B6866
:10229000002B02D1114B124A1A60104B1A687B684E
:1022A00013443A699A4207D202F01AFE03460C22FE
:1022B0001A604FF0FF3309E0084B1B68FB60074BC7
:1022C0001A687B681344054A1360FB681846183780
:1022D000BD4680BD00000220000400000403002071
:1022E0008003002080B400AF064BD3F88830054A45
:1022F00043F47003C2F8883000BFBD465DF8047B2C
:10230000704700BF00ED00E080B582B000AF78609C
:102310007B680F4A934217D10E4B01221A700D4B66
:102320001B78002B0BD00C4B1B889BB25A1C91B214
:10233000094A11801A46094B1978094B9954012210
:102340000649034801F037FE00BF0837BD4680BD8F
:10235000780200202D020020140200202C02002010
:102360001802002000000000B0B584B000AF0346A2
:102370000A46FB8013467B717A797B794E4992003D
:102380000A4412684D499B000B441A607B794C4A01
:102390009B0013441B681846FEF7DEF844A3D3E9FC
:1023A0000023FDF77BFF02460B467C791046194659
:1023B000FEF722FC02464349A3000B441A607B79D6
:1023C000404A9B0013441B681846FEF7C5F80446B4
:1023D0000D467B793B4A9B0013441B681846FEF769
:1023E000BBF84FF00002384BFDF758FF02460B4692
:1023F00020462946FEF732FA02460B467C79104603
:102400001946FEF7F9FB02463049A3000B441A6057
:10241000B7F9063007EE903AF8EEE77AC7ED037A9F
:102420007B79264A9B00134493ED007A7B79274AF7
:102430009B001344D3ED006A7B79204A9B00134430
:10244000D3ED007A97ED036A76EE677A66EEA77AA7
:102450007B7977EE277A184A9B001344C3ED007A04
:102460007B791A4A9B001344D3ED007AB7EE007AC9
:1024700037EE677A7B79134A9B001344D3ED007AD9
:102480007B7967EE277A0E4A9B001344C3ED007AEE
:102490007B79094A9B001344D3ED007AFDEEE77A7D
:1024A00017EE903A1BB218461037BD46B0BD00BFBC
:1024B0007B14AE47E17A843F20030020080300200C
:1024C00004000020380300200000D03F500300200B
:1024D000DFF834D00D480E490E4A002302E0D458EC
:1024E000C4500433C4188C42F9D30B4A0B4C00235C
:1024F00001E013600432A242FBD3FFF7F3FE02F0C7
:10250000F5FCFFF7A7F9704700000220000000204B
:10251000F80100207C9F0008F80100207C030020C7
:10252000FEE7000080B500AF0E4B1B680D4A43F478
:10253000007313600B4B1B680A4A43F480631360FB
:10254000084B1B68074A43F480731360032000F0B4
:102550004FF9002000F008F8FFF7D0FC00231846E0
:1025600080BD00BF003C024080B582B000AF786003
:10257000124B1A68124B1B7819464FF47A73B3FB4F
:10258000F1F3B2FBF3F3184600F067F90346002BB2
:1025900001D001230EE07B680F2B0AD80022796856
:1025A0004FF0FF3000F02FF9064A7B6813600023DC
:1025B00000E0012318460837BD4680BD000000201A
:1025C000200000201C00002080B400AF064B1B78C8
:1025D0001A46064B1B681344044A136000BFBD46ED
:1025E0005DF8047B704700BF2000002068030020D6
:1025F00080B400AF034B1B681846BD465DF8047BF2
:10260000704700BF6803002080B584B000AF7860D9
:10261000FFF7EEFFB8607B68FB60FB68B3F1FF3F3C
:1026200005D00A4B1B781A46FB681344FB6000BFB9
:10263000FFF7DEFF0246BB68D31AFA689A42F7D862
:1026400000BF00BF1037BD4680BD00BF2000002086
:1026500080B485B000AF78607B6803F00703FB604F
:102660000C4BDB68BB60BA684FF6FF031340BB60DE
:10267000FB681A02BB68134343F0BF6343F40033A3
:10268000BB60044ABB68D36000BF1437BD465DF829
:10269000047B704700ED00E080B400AF044BDB68C2
:1026A0001B0A03F007031846BD465DF8047B70471C
:1026B00000ED00E080B483B000AF0346FB7197F9F2
:1026C0000730002B0BDBFB7903F01F02074997F95A
:1026D00007305B09012000FA02F241F8232000BF15
:1026E0000C37BD465DF8047B704700BF00E100E099
:1026F00080B483B000AF03463960FB7197F90730AF
:10270000002B0ADB3B68DAB20C4997F9073012015B
:10271000D2B20B4483F800230AE03B68DAB20849DE
:10272000FB7903F00F03043B1201D2B20B441A767B
:1027300000BF0C37BD465DF8047B704700E100E048
:1027400000ED00E080B489B000AFF860B9607A6055
:10275000FB6803F00703FB61FB69C3F10703042B6C
:1027600028BF0423BB61FB690433062B02D9FB6934
:10277000033B00E000237B614FF0FF32BB6902FAAC
:1027800003F3DA43BB681A407B699A404FF0FF318C
:102790007B6901FA03F3D9437B680B401343184666
:1027A0002437BD465DF8047B7047000080B582B0D9
:1027B00000AF78607B68013BB3F1807F01D30123D8
:1027C0000FE00A4A7B68013B53600F214FF0FF3056
:1027D000FFF78EFF054B00229A60044B07221A6018
:1027E000002318460837BD4680BD00BF10E000E05A
:1027F00080B582B000AF78607868FFF729FF00BF2E
:102800000837BD4680BD80B586B000AF0346B960CD
:102810007A60FB7300237B61FFF73EFF78617A6883
:10282000B9687869FFF78EFF024697F90F301146B5
:102830001846FFF75DFF00BF1837BD4680BD80B565
:1028400082B000AF0346FB7197F907301846FFF7D7
:1028500031FF00BF0837BD4680BD80B582B000AFF4
:1028600078607868FFF7A2FF034618460837BD4630
:1028700080BD80B584B000AF78607B689B6DFB60E5
:10288000FFF7B6FEB8607B6893F83530DBB2022BF9
:1028900008D07B6880225A657B68002283F8342048
:1028A000012352E07B681B681A687B681B6822F072
:1028B00016021A607B681B685A697B681B6822F0E5
:1028C00080025A617B681B6C002B03D17B689B6C78
:1028D000002B07D07B681B681A687B681B6822F096
:1028E00008021A607B681B681A687B681B6822F004
:1028F00001021A6013E0FFF77BFE0246BB68D31AA1
:10290000052B0CD97B6820225A657B68032283F84B
:1029100035207B68002283F83420032315E07B6890
:102920001B681B6803F00103002BE4D17B68DB6D9F
:102930003F229A40FB689A607B68012283F8352029
:102940007B68002283F83420002318461037BD46E8
:1029500080BD80B483B000AF78607B6893F8353079
:10296000DBB2022B04D07B6880225A6501230CE085
:102970007B68052283F835207B681B681A687B68B2
:102980001B6822F001021A60002318460C37BD466E
:102990005DF8047B7047000080B489B000AF7860B8
:1029A000396000237B6100233B610023BB6100236E
:1029B000FB6159E10122FB6902FA03F37B613B6889
:1029C0001B687A6913403B613A697B699A4240F01F
:1029D00048813B685B6803F00303012B05D03B682B
:1029E0005B6803F00303022B30D17B689B68BB61FB
:1029F000FB695B00032202FA03F3DB43BA6913406D
:102A0000BB613B68DA68FB695B0002FA03F3BA69F1
:102A10001343BB617B68BA699A607B685B68BB6182
:102A20000122FB6902FA03F3DB43BA691340BB617D
:102A30003B685B681B0903F00102FB6902FA03F3C0
:102A4000BA691343BB617B68BA695A603B685B68CB
:102A500003F00303032B17D07B68DB68BB61FB69C2
:102A60005B00032202FA03F3DB43BA691340BB6144
:102A70003B689A68FB695B0002FA03F3BA69134387
:102A8000BB617B68BA69DA603B685B6803F003038B
:102A9000022B23D1FB69DA087B68083253F8223015
:102AA000BB61FB6903F007039B000F2202FA03F3EB
:102AB000DB43BA691340BB613B681A69FB6903F0E9
:102AC00007039B0002FA03F3BA691343BB61FB6976
:102AD000DA087B680832B96943F822107B681B6802
:102AE000BB61FB695B00032202FA03F3DB43BA69B3
:102AF0001340BB613B685B6803F00302FB695B004A
:102B000002FA03F3BA691343BB617B68BA691A60BE
:102B10003B685B6803F44033002B00F0A280002385
:102B2000FB60574B5B6C564A43F480435364544BF1
:102B30005B6C03F48043FB60FB68524AFB699B08B3
:102B4000023352F82330BB61FB6903F003039B009F
:102B50000F2202FA03F3DB43BA691340BB617B68BF
:102B6000494A934219D07B68484A934213D07B6804
:102B7000474A93420DD07B68464A934207D07B6810
:102B8000454A934201D1042308E0072306E00323CA
:102B900004E0022302E0012300E00023FA6902F0CE
:102BA000030292009340BA691343BB613549FB6944
:102BB0009B080233BA6941F82320384B1B68BB617C
:102BC0003B69DB43BA691340BB613B685B6803F454
:102BD0008033002B03D0BA693B691343BB612F4A92
:102BE000BB6913602D4B5B68BB613B69DB43BA6912
:102BF0001340BB613B685B6803F40033002B03D0D8
:102C0000BA693B691343BB61244ABB695360234BD8
:102C10009B68BB613B69DB43BA691340BB613B689E
:102C20005B6803F48013002B03D0BA693B6913433C
:102C3000BB611A4ABB699360184BDB68BB613B6997
:102C4000DB43BA691340BB613B685B6803F4001364
:102C5000002B03D0BA693B691343BB610F4ABB69C0
:102C6000D360FB690133FB61FB690F2B7FF6A2AEDA
:102C700000BF00BF2437BD465DF8047B704700BF2E
:102C800000380240003801400000024000040240C9
:102C900000080240000C024000100240003C0140CD
:102CA00080B485B000AF78600B467B807B681A6982
:102CB0007B881340002B02D00123FB7301E000232B
:102CC000FB73FB7B18461437BD465DF8047B7047E9
:102CD00080B483B000AF78600B467B8013467B7076
:102CE0007B78002B03D07A887B689A6103E07B882D
:102CF0001A047B689A6100BF0C37BD465DF8047BFF
:102D00007047000080B586B000AF78607B68002B0C
:102D100001D1012367E27B681B6803F00103002BEC
:102D200075D0884B9B6803F00C03042B0CD0854BAB
:102D30009B6803F00C03082B12D1824B5B6803F4F1
:102D40008003B3F5800F0BD17E4B1B6803F4003377
:102D5000002B5BD07B685B68002B57D1012342E2DC
:102D60007B685B68B3F5803F06D1764B1B68754A7C
:102D700043F4803313601DE07B685B68B3F5A02FDC
:102D80000CD1704B1B686F4A43F4802313606D4B6A
:102D90001B686C4A43F4803313600BE0694B1B687B
:102DA000684A23F480331360664B1B68654A23F43A
:102DB000802313607B685B68002B13D0FFF718FC3F
:102DC000386108E0FFF714FC02463B69D31A642B14
:102DD00001D9032307E25B4B1B6803F40033002B8C
:102DE000F0D014E0FFF704FC386108E0FFF700FCC6
:102DF00002463B69D31A642B01D90323F3E1514BFB
:102E00001B6803F40033002BF0D100E000BF7B68A7
:102E10001B6803F00203002B63D04A4B9B6803F04E
:102E20000C03002B0BD0474B9B6803F00C03082BC3
:102E30001CD1444B5B6803F48003002B16D1414B3B
:102E40001B6803F00203002B05D07B68DB68012BB5
:102E500001D00123C7E13B4B1B6823F0F8027B68DC
:102E60001B69DB00374913430B603AE07B68DB6882
:102E7000002B20D0344B01221A60FFF7B9FB3861D8
:102E800008E0FFF7B5FB02463B69D31A022B01D9D4
:102E90000323A8E12B4B1B6803F00203002BF0D0A7
:102EA000284B1B6823F0F8027B681B69DB0025496F
:102EB00013430B6015E0244B00221A60FFF798FBC8
:102EC000386108E0FFF794FB02463B69D31A022BF6
:102ED00001D9032387E11B4B1B6803F00203002B7E
:102EE000F0D17B681B6803F00803002B36D07B68A9
:102EF0005B69002B16D0154B01221A60FFF778FB97
:102F0000386108E0FFF774FB02463B69D31A022BD5
:102F100001D9032367E10B4B5B6F03F00203002B26
:102F2000F0D01BE0094B00221A60FFF761FB38610B
:102F30000EE0FFF75DFB02463B69D31A022B07D96F
:102F4000032350E10038024000004742800E474210
:102F5000884B5B6F03F00203002BEAD17B681B6890
:102F600003F00403002B00F097800023FB75814BD6
:102F70001B6C03F08053002B0FD10023BB607D4BF3
:102F80001B6C7C4A43F0805313647A4B1B6C03F038
:102F90008053BB60BB680123FB75774B1B6803F450
:102FA0008073002B18D1744B1B68734A43F48073F1
:102FB0001360FFF71DFB386108E0FFF719FB0246BD
:102FC0003B69D31A022B01D903230CE16A4B1B681E
:102FD00003F48073002BF0D07B689B68012B06D133
:102FE000644B1B6F634A43F0010313671CE07B686B
:102FF0009B68052B0CD15F4B1B6F5E4A43F00403AB
:1030000013675C4B1B6F5B4A43F0010313670BE0D4
:10301000584B1B6F574A23F001031367554B1B6F27
:10302000544A23F0040313677B689B68002B15D078
:10303000FFF7DEFA38610AE0FFF7DAFA02463B6989
:10304000D31A41F28832934201D90323CBE0494B92
:103050001B6F03F00203002BEED014E0FFF7C8FA59
:1030600038610AE0FFF7C4FA02463B69D31A41F21D
:103070008832934201D90323B5E03E4B1B6F03F026
:103080000203002BEED1FB7D012B05D1394B1B6CCC
:10309000384A23F0805313647B689B69002B00F04F
:1030A000A180344B9B6803F00C03082B5CD07B6839
:1030B0009B69022B41D1314B00221A60FFF798FA2D
:1030C000386108E0FFF794FA02463B69D31A022BF5
:1030D00001D9032387E0274B1B6803F00073002B03
:1030E000F0D17B68DA697B681B6A1A437B685B6A8C
:1030F0009B011A437B689B6A5B08013B1B041A43D4
:103100007B68DB6A1B061B4913434B601B4B012288
:103110001A60FFF76DFA386108E0FFF769FA0246B6
:103120003B69D31A022B01D903235CE0114B1B68C6
:1031300003F00073002BF0D054E0104B00221A6013
:10314000FFF756FA386108E0FFF752FA02463B698A
:10315000D31A022B01D9032345E0064B1B6803F069
:103160000073002BF0D13DE07B689B69012B07D1F8
:10317000012338E000380240007000406000474200
:103180001B4B5B68FB607B689B69012B28D0FB684D
:1031900003F480027B68DB699A4221D1FB6803F06B
:1031A0003F027B681B6A9A421AD1FA6847F6C073DD
:1031B00013407A68526A9201934211D1FB6803F47A
:1031C00040327B689B6A5B08013B1B049A4207D133
:1031D000FB6803F070627B68DB6A1B069A4201D0D1
:1031E000012300E0002318461837BD4680BD00BF0C
:1031F0000038024080B584B000AF786039607B68E9
:10320000002B01D10123CCE0684B1B6803F00703BE
:103210003A689A420CD9654B3A68D2B21A70634B3D
:103220001B6803F007033A689A4201D00123B8E013
:103230007B681B6803F00203002B20D07B681B68AF
:1032400003F00403002B05D0594B9B68584A43F404
:10325000E05393607B681B6803F00803002B05D0E4
:10326000534B9B68524A43F460439360504B9B68B6
:1032700023F0F0027B689B684D4913438B607B68A9
:103280001B6803F00103002B44D07B685B68012BB3
:1032900007D1474B1B6803F40033002B19D10123DE
:1032A0007FE07B685B68022B03D07B685B68032B45
:1032B00007D13F4B1B6803F00073002B09D101239A
:1032C0006FE03B4B1B6803F00203002B01D101238D
:1032D00067E0374B9B6823F003027B685B683449E7
:1032E00013438B60FFF784F9F8600AE0FFF780F979
:1032F0000246FB68D31A41F28832934201D9032374
:103300004FE02B4B9B6803F00C027B685B689B00D3
:103310009A42EBD1254B1B6803F007033A689A42A7
:103320000CD2224B3A68D2B21A70204B1B6803F0C1
:1033300007033A689A4201D0012332E07B681B6898
:1033400003F00403002B08D0194B9B6823F4E052D0
:103350007B68DB68164913438B607B681B6803F04E
:103360000803002B09D0124B9B6823F460427B6852
:103370001B69DB000E4913438B6000F021F8024605
:103380000B4B9B681B0903F00F030A49CB5C22FA25
:1033900003F3094A1360094B1B681846FFF7E4F86A
:1033A000002318461037BD4680BD00BF003C0240D8
:1033B00000380240A49A0008000000201C000020F1
:1033C0002DE9B04F94B000AF00237B640023FB6471
:1033D00000233B640023BB64794B9B6803F00C0320
:1033E000082B0DD0082B00F2E180002B02D0042B1B
:1033F00003D0DBE0734BBB64DBE0734BBB64D8E012
:103400006F4B5B6803F03F037B646D4B5B6803F4B9
:103410008003002B63D06A4B5B689B090022BB636F
:10342000FA63BB6BC3F308033B6300237B63D7E9F9
:103430000C4522462B464FF000004FF00001590189
:1034400041EAD261500102460B462146511A3961C8
:10345000294663EB01037B614FF000024FF000034C
:10346000D7E904AB59468B01514643EA9163514673
:103470008A015146B2EB0108594663EB01094FF04E
:1034800000024FF000034FEAC90343EA58734FEAC2
:10349000C80290469946234618EB0303BB602B46AF
:1034A00049EB0303FB604FF000024FF00003D7E944
:1034B000024529464B02214643EAD15321464A029E
:1034C000104619467B6C0022BB62FA62D7E90A23D8
:1034D000FDF7E2FB02460B461346FB6458E0384B0F
:1034E0005B689B09002218461146C0F308033B6243
:1034F00000237B62D7E9088942464B464FF0000023
:103500004FF00001590141EAD261500102460B46D9
:103510004146B2EB010A494663EB010B4FF0000252
:103520004FF000034FEA8B1343EA9A634FEA8A1283
:10353000B2EB0A0463EB0B054FF000024FF00003FF
:10354000EB0043EA5473E20014461D464346E31879
:103550003B604B4645EB03037B604FF000024FF0AE
:103560000003D7E9004529468B02214643EA9153DF
:1035700021468A02104619467B6C0022BB61FA6123
:10358000D7E90623FDF788FB02460B461346FB648A
:103590000B4B5B681B0C03F0030301335B003B64C4
:1035A000FA6C3B6CB2FBF3F3BB6402E0054BBB640B
:1035B00000BFBB6C18465037BD46BDE8B08F00BF9A
:1035C000003802400024F40000127A0080B400AFFA
:1035D000034B1B681846BD465DF8047B704700BF6F
:1035E0000000002080B500AFFFF7F0FF0246054B5A
:1035F0009B689B0A03F007030349CB5C22FA03F3A1
:10360000184680BD00380240B49A000880B500AF6B
:10361000FFF7DCFF0246054B9B685B0B03F00703DB
:103620000349CB5C22FA03F3184680BD0038024000
:10363000B49A000880B582B000AF78607B68002B38
:1036400001D1012341E07B6893F83D30DBB2002BD0
:1036500006D17B68002283F83C207868FEF776FC70
:103660007B68022283F83D207B681A687B680433FC
:103670001946104600F024FA7B68012283F84620A0
:103680007B68012283F83E207B68012283F83F207B
:103690007B68012283F840207B68012283F8412067
:1036A0007B68012283F842207B68012283F8432053
:1036B0007B68012283F844207B68012283F845203F
:1036C0007B68012283F83D20002318460837BD4659
:1036D00080BD80B582B000AF78607B681B681B69D5
:1036E00003F00203022B22D17B681B68DB6803F026
:1036F0000203022B1BD17B681B686FF002021A6168
:103700007B6801221A777B681B689B6903F00303BF
:10371000002B03D0786800F0B5F905E0786800F078
:10372000A7F9786800F0B8F97B6800221A777B68FF
:103730001B681B6903F00403042B22D17B681B6800
:10374000DB6803F00403042B1BD17B681B686FF05C
:1037500004021A617B6802221A777B681B689B69E6
:1037600003F44073002B03D0786800F08BF905E078
:10377000786800F07DF9786800F08EF97B680022A7
:103780001A777B681B681B6903F00803082B22D19A
:103790007B681B68DB6803F00803082B1BD17B6880
:1037A0001B686FF008021A617B6804221A777B6835
:1037B0001B68DB6903F00303002B03D0786800F07B
:1037C00061F905E0786800F053F9786800F064F971
:1037D0007B6800221A777B681B681B6903F0100363
:1037E000102B22D17B681B68DB6803F01003102BC1
:1037F0001BD17B681B686FF010021A617B6808227E
:103800001A777B681B68DB6903F44073002B03D0D5
:10381000786800F037F905E0786800F029F97868F1
:1038200000F03AF97B6800221A777B681B681B69F5
:1038300003F00103012B0ED17B681B68DB6803F0EA
:103840000103012B07D17B681B686FF001021A612D
:103850007868FDF7D9FB7B681B681B6903F0800360
:10386000802B0ED17B681B68DB6803F08003802B04
:1038700007D17B681B686FF080021A61786800F0DE
:10388000B1FA7B681B681B6903F04003402B0ED123
:103890007B681B68DB6803F04003402B07D17B6823
:1038A0001B686FF040021A61786800F0FFF87B68CF
:1038B0001B681B6903F02003202B0ED17B681B685B
:1038C000DB6803F02003202B07D17B681B686FF0B7
:1038D00020021A61786800F07BFA00BF0837BD4605
:1038E00080BD80B584B000AF786039600023FB7381
:1038F0007B6893F83C30012B01D10223B4E07B6854
:10390000012283F83C207B68022283F83D207B68FB
:103910001B689B68BB60BB6823F07703BB60BB6818
:1039200023F47F43BB607B681B68BA689A603B687E
:103930001B68B3F5005F3ED0B3F5005F00F28780EF
:10394000B3F5805F00F08680B3F5805F7FD8702B81
:103950001AD0702B7BD8602B50D0602B77D8502B8F
:103960003CD0502B73D8402B58D0402B6FD8302BE5
:1039700064D0302B6BD8202B60D0202B67D8002B45
:103980005CD0102B5AD062E07B6818683B6899685D
:103990003B685A683B68DB6800F08CF97B681B6801
:1039A0009B68BB60BB6843F07703BB607B681B68A8
:1039B000BA689A604FE07B6818683B6899683B6812
:1039C0005A683B68DB6800F075F97B681B689A6889
:1039D0007B681B6842F480429A603CE07B68186810
:1039E0003B6859683B68DB681A4600F0E9F87B6879
:1039F0001B685021184600F042F92CE07B681868DB
:103A00003B6859683B68DB681A4600F008F97B6838
:103A10001B686021184600F032F91CE07B681868CA
:103A20003B6859683B68DB681A4600F0C9F87B6858
:103A30001B684021184600F022F90CE07B681A68E8
:103A40003B681B681946104600F019F903E0012392
:103A5000FB7300E000BF7B68012283F83D207B6898
:103A6000002283F83C20FB7B18461037BD4680BD02
:103A700080B483B000AF786000BF0C37BD465DF8FE
:103A8000047B704780B483B000AF786000BF0C3710
:103A9000BD465DF8047B704780B483B000AF7860AA
:103AA00000BF0C37BD465DF8047B704780B483B01F
:103AB00000AF786000BF0C37BD465DF8047B7047EF
:103AC00080B485B000AF786039607B681B68FB60AC
:103AD0007B68344A93420FD07B68B3F1804F0BD0A0
:103AE0007B68314A934207D07B68304A934203D0C7
:103AF0007B682F4A934208D1FB6823F07003FB6078
:103B00003B685B68FA681343FB607B68254A934215
:103B10001BD07B68B3F1804F17D07B68224A934259
:103B200013D07B68214A93420FD07B68204A93428E
:103B30000BD07B681F4A934207D07B681E4A934292
:103B400003D07B681D4A934208D1FB6823F440737D
:103B5000FB603B68DB68FA681343FB60FB6823F09B
:103B600080023B685B691343FB607B68FA681A60FC
:103B70003B689A687B68DA623B681A687B689A627D
:103B80007B68084A934203D13B681A697B681A63D1
:103B90007B6801225A6100BF1437BD465DF8047B83
:103BA000704700BF000001400004004000080040D2
:103BB000000C00400040014000440140004801402A
:103BC00080B487B000AFF860B9607A60FB681B6AA8
:103BD0007B61FB681B6A23F00102FB681A62FB68C9
:103BE0009B693B613B6923F0F0033B617B681B01F0
:103BF0003A6913433B617B6923F00A037B617A696D
:103C0000BB6813437B61FB683A699A61FB687A6918
:103C10001A6200BF1C37BD465DF8047B704780B454
:103C200087B000AFF860B9607A60FB681B6A23F068
:103C30001002FB681A62FB689B697B61FB681B6A68
:103C40003B617B6923F470437B617B681B037A696A
:103C500013437B613B6923F0A0033B61BB681B01FD
:103C60003A6913433B61FB687A699A61FB683A6978
:103C70001A6200BF1C37BD465DF8047B704780B4F4
:103C800085B000AF786039607B689B68FB60FB683B
:103C900023F07003FB603A68FB68134343F00703AB
:103CA000FB607B68FA689A6000BF1437BD465DF818
:103CB000047B704780B487B000AFF860B9607A6069
:103CC0003B60FB689B687B617B6923F47F437B617E
:103CD0003B681A027B681A43BB6813437A69134333
:103CE0007B61FB687A699A6000BF1C37BD465DF84E
:103CF000047B704780B485B000AF786039607B6822
:103D000093F83C30012B01D1022350E07B68012263
:103D100083F83C207B68022283F83D207B681B6887
:103D20005B68FB607B681B689B68BB60FB6823F07B
:103D30007003FB603B681B68FA681343FB607B6899
:103D40001B68FA685A607B681B681C4A934218D04B
:103D50007B681B68B3F1804F13D07B681B68184ADF
:103D600093420ED07B681B68164A934209D07B6849
:103D70001B68154A934204D07B681B68134A934220
:103D80000CD1BB6823F08003BB603B685B68BA68FA
:103D90001343BB607B681B68BA689A607B6801222A
:103DA00083F83D207B68002283F83C2000231846DE
:103DB0001437BD465DF8047B704700BF000001402A
:103DC0000004004000080040000C0040004001409A
:103DD00080B483B000AF786000BF0C37BD465DF89B
:103DE000047B704780B483B000AF786000BF0C37AD
:103DF000BD465DF8047B704780B582B000AF786047
:103E00007B68002B01D101233FE07B6893F83D30B4
:103E1000DBB2002B06D17B68002283F83C20786857
:103E2000FEF7B6F87B68242283F83D207B681B6888
:103E3000DA687B681B6822F40052DA60786800F068
:103E4000DBFD7B681B681A697B681B6822F4904263
:103E50001A617B681B685A697B681B6822F02A021A
:103E60005A617B681B68DA687B681B6842F4005201
:103E7000DA607B6800221A647B68202283F83D2088
:103E80007B68202283F83E20002318460837BD4671
:103E900080BD80B58AB002AFF860B9603B60134660
:103EA000FB8000237B61FB6893F83D30DBB2202B65
:103EB0007CD1BB68002B02D0FB88002B01D10123F1
:103EC00075E0FB6893F83C30012B01D102236EE0D2
:103ED000FB68012283F83C20FB6800221A64FB681F
:103EE000212283F83D20FEF783FB7861FB68FA8886
:103EF0009A84FB68FA88DA84FB689B68B3F5805F74
:103F000008D1FB681B69002B04D10023FB61BB684F
:103F1000BB6103E0BB68FB610023BB61FB6800225F
:103F200083F83C202AE03B6800937B6900228021D3
:103F3000F86800F01FFB0346002B01D0032336E096
:103F4000FB69002B0BD1BB691B881A46FB681B68F9
:103F5000C2F308025A60BB690233BB6107E0FB6928
:103F60001A78FB681B685A60FB690133FB61FB68C8
:103F7000DB8C9BB2013B9AB2FB68DA84FB68DB8C7A
:103F80009BB2002BCFD13B6800937B69002240217C
:103F9000F86800F0EFFA0346002B01D0032306E097
:103FA000FB68202283F83D20002300E0022318460E
:103FB0002037BD4680BD80B584B000AFF860B960E1
:103FC0001346FB80FB6893F83E30DBB2202B1DD1FB
:103FD000BB68002B02D0FB88002B01D1012316E027
:103FE000FB6893F83C30012B01D102230FE0FB6802
:103FF000012283F83C20FB6800221A63FB881A46E2
:10400000B968F86800F024FB034600E00223184674
:104010001037BD4680BD000080B5BAB000AF7860F3
:104020007B681B681B68C7F8E4307B681B68DB682B
:10403000C7F8E0307B681B685B69C7F8DC30002399
:10404000C7F8D8300023C7F8D430D7F8E43003F0ED
:104050000F03C7F8D830D7F8D830002B0FD1D7F8D6
:10406000E43003F02003002B09D0D7F8E03003F050
:104070002003002B03D0786800F003FC56E2D7F849
:10408000D830002B00F0DE80D7F8DC3003F00103DD
:10409000002B06D1D7F8E03003F49073002B00F02A
:1040A000D180D7F8E43003F00103002B0BD0D7F810
:1040B000E03003F48073002B05D07B681B6C43F069
:1040C00001027B681A64D7F8E43003F00403002B84
:1040D0000BD0D7F8DC3003F00103002B05D07B6850
:1040E0001B6C43F002027B681A64D7F8E43003F0DB
:1040F0000203002B0BD0D7F8DC3003F00103002BB8
:1041000005D07B681B6C43F004027B681A64D7F807
:10411000E43003F00803002B11D0D7F8E03003F0AF
:104120002003002B05D1D7F8DC3003F00103002B6E
:1041300005D07B681B6C43F008027B681A647B68BF
:104140001B6C002B00F0ED81D7F8E43003F0200366
:10415000002B08D0D7F8E03003F02003002B02D06A
:10416000786800F08EFB7B681B685B6903F0400396
:10417000402B0CBF01230023DBB2C7F8D4307B688F
:104180001B6C03F00803002B03D1D7F8D430002BAD
:104190004FD0786800F096FA7B681B685B6903F083
:1041A0004003402B41D17B681B681433C7F89C3017
:1041B000D7F89C3053E8003FC7F89830D7F89830CC
:1041C00023F04003C7F8D0307B681B681433D7F85E
:1041D000D020C7F8A820C7F8A430D7F8A410D7F883
:1041E000A82041E80023C7F8A030D7F8A030002B62
:1041F000D9D17B689B6B002B13D07B689B6B7D4A6E
:104200001A657B689B6B1846FEF7A3FB0346002BE1
:1042100016D07B689B6B1B6D7A68926B1046984733
:104220000EE0786800F090F90AE0786800F08CF908
:1042300006E0786800F088F97B6800221A6470E173
:1042400000BF6EE17B681B6B012B40F04A81D7F801
:10425000E43003F01003002B00F04381D7F8E03086
:1042600003F01003002B00F03C810023BB607B684F
:104270001B681B68BB607B681B685B68BB60BB68B6
:104280007B681B685B6903F04003402B40F0B480FF
:104290007B689B6B1B685B68A7F8BE30B7F8BE30C5
:1042A000002B00F040817B689B8DB7F8BE209A42BE
:1042B00080F039817B68B7F8BE20DA857B689B6B1C
:1042C000DB69B3F5807F00F088807B681B680C3366
:1042D000C7F88830D7F8883053E8003FC7F88430F3
:1042E000D7F8843023F48073C7F8B8307B681B6834
:1042F0000C33D7F8B820C7F89420C7F89030D7F817
:104300009010D7F8942041E80023C7F88C30D7F8F4
:104310008C30002BD9D17B681B6814337B677B6F93
:1043200053E8003F3B673B6F23F00103C7F8B4300D
:104330007B681B681433D7F8B420C7F88020FB676C
:10434000F96FD7F8802041E80023BB67BB6F002BD3
:10435000E1D17B681B6814333B663B6E53E8003F3A
:10436000FB65FB6D23F04003C7F8B0307B681B682A
:104370001433D7F8B020FA66BB66B96EFA6E41E81E
:1043800000237B667B6E002BE3D17B68202283F8C1
:104390003E207B6800221A637B681B680C33FB6439
:1043A000FB6C53E8003FBB64BB6C23F01003C7F801
:1043B000AC307B681B680C33D7F8AC20BA657B65E2
:1043C000796DBA6D41E800233B653B6D002BE3D16D
:1043D0007B689B6B1846FEF74CFA7B689A8D7B686E
:1043E000DB8D9BB2D31A9BB21946786800F0B6F801
:1043F00099E000BF8B4700087B689A8D7B68DB8D56
:104400009BB2D31AA7F8CE307B68DB8D9BB2002B12
:1044100000F08B80B7F8CE30002B00F086807B68F0
:104420001B680C33BB63BB6B53E8003F7B637B6B48
:1044300023F49073C7F8C8307B681B680C33D7F837
:10444000C8207A643B64396C7A6C41E80023FB63D2
:10445000FB6B002BE3D17B681B6814337B627B6AA8
:1044600053E8003F3B623B6A23F00103C7F8C430C6
:104470007B681B681433D7F8C4203A63FB62F96A7F
:104480003A6B41E80023BB62BB6A002BE3D17B6837
:10449000202283F83E207B6800221A637B681B6819
:1044A0000C333B613B6953E8003FFB60FB6823F042
:1044B0001003C7F8C0307B681B680C33D7F8C020E6
:1044C000FA61BB61B969FA6941E800237B617B69E4
:1044D000002BE3D1B7F8CE301946786800F03EF8EB
:1044E00023E0D7F8E43003F08003002B09D0D7F89D
:1044F000E03003F08003002B03D0786800F059F916
:1045000014E0D7F8E43003F04003002B0ED0D7F8C6
:10451000E03003F04003002B08D0786800F099F9F0
:1045200004E000BF02E000BF00E000BFE837BD4686
:1045300080BD00BF80B483B000AF786000BF0C378F
:10454000BD465DF8047B704780B483B000AF7860EF
:1045500000BF0C37BD465DF8047B704780B483B064
:1045600000AF78600B467B8000BF0C37BD465DF81E
:10457000047B704780B590B000AFF860B9603B60D5
:104580001346FB7150E0BB6CB3F1FF3F4CD0BB6CEA
:10459000002B07D0FEF72CF802463B68D31ABA6C02
:1045A0009A4241D2FB681B680C33BB62BB6A53E87A
:1045B000003F7B627B6A23F4D073FB63FB681B685C
:1045C0000C33FA6B7A633B63396B7A6B41E80023F7
:1045D000FB62FB6A002BE5D1FB681B6814337B612F
:1045E0007B6953E8003F3B613B6923F00103BB63F8
:1045F000FB681B681433BA6B3A62FB61F9693A6A6B
:1046000041E80023BB61BB69002BE5D1FB68202298
:1046100083F83D20FB68202283F83E20FB680022BF
:1046200083F83C2003230FE0FB681B681A68BB6813
:104630001340BA689A420CBF01230023DBB21A462A
:10464000FB799A429FD0002318464037BD4680BD73
:1046500080B485B000AFF860B9601346FB80FB689A
:10466000BA689A62FB68FA889A85FB68FA88DA85E4
:10467000FB6800221A64FB68222283F83E20FB6854
:10468000002283F83C20FB681B68DA68FB681B6823
:1046900042F48072DA60FB681B685A69FB681B6829
:1046A00042F001025A61FB681B68DA68FB681B680C
:1046B00042F02002DA60002318461437BD465DF848
:1046C000047B704780B495B000AF78607B681B684E
:1046D0000C337B637B6B53E8003F3B633B6B23F402
:1046E0009073FB647B681B680C33FA6C3A64FB6361
:1046F000F96B3A6C41E80023BB63BB6B002BE5D13F
:104700007B681B6814333B623B6A53E8003FFB61E4
:10471000FB6923F00103BB647B681B681433BA6C2C
:10472000FA62BB62B96AFA6A41E800237B627B6A7B
:10473000002BE5D17B681B6B012B19D17B681B68B3
:104740000C33FB60FB6853E8003FBB60BB6823F0A1
:1047500010037B647B681B680C337A6CBA617B61E5
:104760007969BA6941E800233B613B69002BE5D1D7
:104770007B68202283F83E207B6800221A6300BFFA
:104780005437BD465DF8047B704780B584B000AFF8
:1047900078607B689B6BFB60FB680022DA85FB68B6
:1047A0000022DA84F868FFF7CFFE00BF1037BD465D
:1047B00080BD80B485B000AF78607B6893F83D30F1
:1047C000DBB2212B3ED17B689B68B3F5805F14D1AF
:1047D0007B681B69002B10D17B681B6AFB60FB6840
:1047E0001B881A467B681B68C2F308025A607B6804
:1047F0001B6A9A1C7B681A6208E07B681B6A591C5A
:104800007A6811621A787B681B685A607B68DB8C57
:104810009BB2013B9BB27A681946D184002B0FD121
:104820007B681B68DA687B681B6822F08002DA60AC
:104830007B681B68DA687B681B6842F04002DA60BC
:10484000002300E0022318461437BD465DF8047BC0
:10485000704780B582B000AF78607B681B68DA680B
:104860007B681B6822F04002DA607B68202283F8B4
:104870003D207868FFF75EFE002318460837BD46E6
:1048800080BD80B58CB000AF78607B6893F83E3017
:10489000DBB2222B40F0AB807B689B68B3F5805F76
:1048A00017D17B681B69002B13D10023FB627B6847
:1048B0009B6ABB627B681B685B689BB2C3F308039F
:1048C0009AB2BB6A1A807B689B6A9A1C7B689A6260
:1048D00026E07B689B6AFB620023BB627B689B6867
:1048E000B3F5805F07D07B689B68002B0AD17B689B
:1048F0001B69002B06D17B681B685B68DAB2FB6A18
:104900001A7008E07B681B685B68DBB203F07F030A
:10491000DAB2FB6A1A707B689B6A5A1C7B689A62DF
:104920007B68DB8D9BB2013B9BB27A681946D185CF
:10493000002B5AD17B681B68DA687B681B6822F001
:104940002002DA607B681B68DA687B681B6822F4E7
:104950008072DA607B681B685A697B681B6822F08A
:1049600001025A617B68202283F83E207B681B6B22
:10497000012B35D17B6800221A637B681B680C33DE
:104980007B617B6953E8003F3B613B6923F0100387
:104990007B627B681B680C337A6A3A62FB61F96957
:1049A0003A6A41E80023BB61BB69002BE5D17B6813
:1049B0001B681B6803F01003102B0AD10023FB6057
:1049C0007B681B681B68FB607B681B685B68FB601F
:1049D000FB687B689B8D19467868FFF7BFFD02E096
:1049E0007868FDF791FC002302E0002300E0022339
:1049F00018463037BD4680BD2DE9B04FC0B000AF7E
:104A0000C7F8F400D7F8F4301B681B6923F4405052
:104A1000D7F8F430D968D7F8F4301A6840EA0103BF
:104A20001361D7F8F4309A68D7F8F4301B691A4349
:104A3000D7F8F4305B691A43D7F8F430DB691343D5
:104A4000C7F8F830D7F8F4301B68DB6823F4164158
:104A500021F00C01D7F8F4301A68D7F8F8300B437E
:104A6000D360D7F8F4301B685B6923F44070D7F843
:104A7000F4309969D7F8F4301A6840EA01035361B9
:104A8000D7F8F4301A688F4B9A4205D0D7F8F43033
:104A90001A688D4B9A4204D1FEF7B8FDC7F8FC00A6
:104AA00003E0FEF79FFDC7F8FC00D7F8F430DB69A0
:104AB000B3F5004F40F00C81D7F8FC300022C7F866
:104AC000E830C7F8EC20D7E93A4522462B46911842
:104AD000B9655B41FB65D7E91623214612EB010856
:104AE000294643EB01094FF000024FF000034FEA63
:104AF000C90343EA58734FEAC802904699462346D1
:104B000018EB0303C7F8E0302B4649EB0303C7F863
:104B1000E430D7F8F4305B680022C7F8D830C7F823
:104B2000DC20D7E936120B46DB183B65134642EB17
:104B300003037B65D7E91423D7E93801FCF7ACF808
:104B400002460B46614BA3FB02235B091C01D7F80D
:104B5000FC300022C7F8D030C7F8D420D7E9348918
:104B600042464B469118B9645B41FB64D7E9122376
:104B7000414612EB010A494643EB010B4FF000029C
:104B80004FF000034FEACB0343EA5A734FEACA02DD
:104B900092469B4643461AEB0303C7F8C8304B4680
:104BA0004BEB0303C7F8CC30D7F8F4305B68002236
:104BB000C7F8C030C7F8C420D7E930120B46DB185D
:104BC0003B64134642EB03037B64D7E91023D7E928
:104BD0003201FCF761F802460B4611463B4BA3FB42
:104BE00001235B09642202FB03F3CB1ADB0003F110
:104BF0003202364BA3FB02235B095B0003F4F8731C
:104C00001C44D7F8FC300022C7F8B830C7F8BC20E5
:104C1000D7E92E8942464B469118B9635B41FB6345
:104C2000D7E90E2341465118396349464B417B630E
:104C30004FF000024FF00003D7E90CAB5946CB0010
:104C4000514643EA51735146CA001046194603467D
:104C500042469B18C7F8B0304B460A4642EB030366
:104C6000C7F8B430D7F8F4305B680022C7F8A83032
:104C7000C7F8AC20D7E92A120B46DB18BB621346F3
:104C800042EB0303FB62D7E90A23D7E92C01FCF7C7
:104C900003F802460B460D4BA3FB02135B0964218C
:104CA00001FB03F3D31ADB003233084AA2FB0323D0
:104CB0005B0903F00702D7F8F4301B6822449A60BE
:104CC00005E100BF00100140001401401F85EB51B9
:104CD000D7F8FC300022C7F8A030C7F8A420D7E9E5
:104CE000288942464B46911839625B417B62D7E97D
:104CF000082341465418494643EB01054FF0000292
:104D00004FF00003EB0043EA5473E20014461D46E3
:104D10004346E318C7F898304B4645EB0303C7F802
:104D20009C30D7F8F4305B680022C7F89030C7F8A1
:104D300094204FF000024FF00003D7E924452946A4
:104D40008B00214643EA917321468A00D7E9260168
:104D5000FBF7A2FF02460B46604BA3FB02235B0955
:104D60001C01D7F8FC300022C7F88830C7F88C2027
:104D7000D7E9228942464B469118B9615B41FB61F4
:104D8000D7E9062341465118396149464B417B61B9
:104D90004FF000024FF00003D7E904AB5946CB00B7
:104DA000514643EA51735146CA001046194603461C
:104DB00042469B18C7F880304B460A4642EB030335
:104DC000C7F88430D7F8F4305B680022BB67FA6715
:104DD0004FF000024FF00003D7E91E8949468B00CF
:104DE000414643EA917341468A00D7E92001FBF727
:104DF00053FF02460B46394BA3FB02135B096421A8
:104E000001FB03F3D31A1B013233344AA2FB032301
:104E10005B0903F0F0031C44D7F8FC3000223B6729
:104E20007A67D7E91C8942464B469118B9605B41C5
:104E3000FB60D7E9022341465118396049464B418E
:104E40007B604FF000024FF00003D7E900AB5946FA
:104E5000CB00514643EA51735146CA0010461946E9
:104E6000034642469B18BB664B460A4642EB030389
:104E7000FB66D7F8F4305B6800223B667A664FF039
:104E800000024FF00003D7E9188949468B004146DC
:104E900043EA917341468A00D7E91A01FBF7FCFE09
:104EA00002460B460D4BA3FB02135B09642101FB79
:104EB00003F3D31A1B013233084AA2FB03235B0915
:104EC00003F00F02D7F8F4301B6822449A6000BF49
:104ED00007F58077BD46BDE8B08F00BF1F85EB5159
:104EE000014B1868704700BF2400002070B50D4DBD
:104EF0000D4C641BA4100026A64209D10B4D0C4C8E
:104F000004F078FD641BA4100026A64205D170BDF4
:104F100055F8043B98470136EEE755F8043B9847AF
:104F20000136F2E7749F0008749F0008749F000820
:104F3000789F00080A44914200F1FF3300D1704786
:104F400010B511F8014B03F8014F9142F9D110BD92
:104F500002440346934200D1704703F8011BF9E76E
:104F60002DE9FF4755EC104B002D0E4619462B46F8
:104F7000BBBF05F100431D4600232D230B700D9B85
:104F8000DDF830A0914623F02008BCBF224614462D
:104F9000B8F1460F05D0B8F1450F00D10136022116
:104FA00000E0032103AB019302AB009345EC104BEF
:104FB0005346324601F010FFB8F1470F074602D1C1
:104FC00019F0010F22D0B8F1460F07EB060910D1F6
:104FD0003B78302B0AD10022002320462946FBF7DC
:104FE0007BFD18B9C6F10106CAF80060DAF8003096
:104FF00099440022002320462946FBF76DFD08B1A5
:10500000CDF80C903022039B4B4507D3039B0E9A9F
:10501000DB1B3846136004B0BDE8F087591C0391D0
:105020001A70F0E7F7B503460029B8BF494203F804
:10503000022BB4BF2D222B22092942702ADD0DF14B
:105040000704A4460A27A6460A4691FBF7F607FB83
:1050500016153035632A04F1FF340EF8015C314631
:10506000F1DC3031AEF1020504F8011C441C294684
:1050700061450AD30DF10902A2EB0E02654588BF16
:1050800000221344181A03B0F0BD11F8012B04F8E4
:10509000012FEDE7302330318370C170031DF1E73C
:1050A0002DE9F04F2DED028B8DB00C46DDF86080C0
:1050B00016461F46054603F0A3F9D0F800A0504657
:1050C000FBF78EF800230A9323680593D8F8003085
:1050D00094F818B0073323F0070303F10802C8F867
:1050E0000020D3E90023C4E91223D4E9128929F06E
:1050F00000430793CDF8188008EE100A9F4BDDE9B6
:1051000006014FF0FF32FBF719FD88BBDDE9060110
:105110009A4B4FF0FF32FBF7F3FC48BB0022002311
:1051200040464946FBF7E2FC10B12D2384F843309A
:10513000934B9448BBF1470F94BF98468046032396
:105140002361059B23F0040222604FF000090097C1
:1051500033460BAA2146284600F0D8F9013040F02A
:1051600090804FF0FF300DB0BDEC028BBDE8F08FAA
:1051700042464B4640464946FBF7E0FC40B14B46B1
:10518000002BBCBF2D2384F843307F487F4BD1E7F1
:1051900063680BF0DF0206925A1C3FD1062363605E
:1051A000059B616843F48062002303930AABCDE959
:1051B00001B309AB49EC108B009322600DF123037E
:1051C0002846FFF7CDFE069B0999472B804608D15C
:1051D000C81C02DB6368994241DDABF1020B5FFA48
:1051E0008BFBBBF1650F20D801395A4604F1500002
:1051F0000991FFF717FF0A9A1318012A81462361C4
:1052000002DC2268D20701D5013323619DF82330E7
:10521000002B9CD02D2384F8433098E7069A472A28
:10522000BED1002BBCD10123B9E7BBF1660F18D169
:10523000002963680BDD216113B92268D00702D50C
:1052400001330B442361A1654FF00009DEE713B978
:105250002268D20701D50233F4E70123F2E74FF0C9
:10526000670B0A9B994205DB23682161D807EAD5C1
:105270004B1CE7E70029D4BFC1F10202012213440D
:10528000E0E723685A0507D4236942463146284699
:10529000B84701302CD164E7BBF1650F40F2E080E4
:1052A000D4E9120100220023FBF716FC002834D0B9
:1052B000374A012331462846B84701303FF451AF01
:1052C000DDE909239A4202DB2368D80710D518EEDE
:1052D000103A524631462846B84701303FF441AFB4
:1052E0004FF0000804F11A090A9B013B434509DC11
:1052F00023689B0700F10581E0680B9B9842B8BFCB
:10530000184630E701234A4631462846B84701305F
:105310003FF427AF08F10108E6E7099B002B39DCD1
:105320001B4A012331462846B84701303FF419AFE4
:10533000DDE90923134302D12368D907D8D518EE34
:10534000103A524631462846B84701303FF409AF7B
:105350004FF0000904F11A0A099B5B424B4501DC3E
:105360000A9B92E70123524631462846B84701304E
:105370003FF4F7AE09F10109EEE700BFFFFFEF7F51
:10538000C09A0008C49A0008CC9A0008C89A00087D
:10539000D09A00080A9AA36D9A42A8BF1A46002A1A
:1053A000914637DC4FF0000B29EAE97904F11A0243
:1053B000A36D0593A3EB09035B4533DCDDE909230A
:1053C0009A423BDB2368DA0738D40A9B059A09998D
:1053D0009A1AA3EB01099145A8BF9146B9F1000FB4
:1053E00035DC4FF0000829EAE97904F11A0ADDE911
:1053F00009239B1AA3EB090343457FF779AF0123E8
:10540000524631462846B84701303FF4AAAE08F16B
:105410000108ECE71346314642462846B8470130BA
:10542000C0D19EE60123314628460592B847013097
:105430003FF497AE059A0BF1010BB9E718EE103A5D
:10544000524631462846B8470130BED189E6059A12
:105450004B46424431462846B8470130C1D180E628
:105460000A9A012A01DCDB0738D50123424631467E
:105470002846B84701303FF474AE18EE103A524651
:1054800031462846B84701303FF46BAED4E91201EB
:1054900000220023FBF720FBD8B90A9B08F1010288
:1054A000013B31462846B84701300ED159E6012369
:1054B000524631462846B84701303FF452AE08F113
:1054C00001080A9B013B4345F1DC4B4604F15002C5
:1054D000DCE64FF0000804F11A0AF2E70123424625
:1054E000DFE701234A4631462846B84701303FF4FA
:1054F00038AE08F10108E3680B995B1A4345F0DC0C
:10550000FAE64FF0000804F11909F4E72DE9F04735
:10551000164699468A680B69DDF820809342B8BF29
:105520001346336091F8432007460C460AB1013315
:1055300033602368990642BF3368023333602568BD
:1055400015F0060506D104F1190AE36832689B1AC2
:10555000AB4226DC94F84320131E226818BF0123B7
:1055600092062BD404F1430249463846C047013025
:105570001ED02368E568326803F00603042B08BFD9
:10558000AD1AA36822690CBF25EAE5750025934290
:10559000C4BF9B1AED1800261A34B5421AD1002058
:1055A00008E00123524649463846C047013003D13E
:1055B0004FF0FF30BDE8F0870135C6E7E1185A1C0F
:1055C000302081F84300224494F8451082F84310BB
:1055D0000233C7E70123224649463846C047013017
:1055E000E6D00136D9E700002DE9FF470F7E0C9D7C
:1055F000782F914680460C469A4601F1430207D81F
:10560000622F0AD8002F00F0D880582F00F0A38016
:1056100004F1420584F842703AE0A7F16303152BC8
:10562000F6D801A151F823F08156000895560008DC
:1056300011560008115600081156000811560008AE
:10564000955600081156000811560008115600081A
:1056500011560008A1570008C556000883570008D6
:105660001156000811560008C357000811560008CB
:10567000C556000811560008115600088B5700083F
:105680002B681A1D1B682A6004F1420584F8423019
:105690000123A3E020682968060601F104030AD566
:1056A0000E682B60002E03DA2D23764284F84330F7
:1056B0005E480A2319E00E682B6010F0400F18BFF7
:1056C00036B2EFE72B682068191D2960010601D565
:1056D0001E6802E04606FBD51E8854486F2F0CBF9B
:1056E00008230A23002184F843106568A560002D73
:1056F000A2BF216821F0040121600EB9002D4DD018
:105700001546B6FBF3F103FB1167C75D05F8017D94
:105710003746BB420E46F4D9082B0BD12368DE076F
:1057200008D5236961689942DEBF302305F8013C42
:1057300005F1FF35521B2261CDF800A04B4603AAAC
:1057400021464046FFF7E2FE01304CD14FF0FF30DA
:1057500004B0BDE8F087354881F8457029682368B2
:1057600051F8046B29601D0614D5DF0744BF43F0D0
:10577000200323601EB9236823F020032360102335
:10578000B0E7236843F0200323607823284884F897
:105790004530E3E7590648BFB6B2E6E71546BBE732
:1057A0002B6826686169181D286035061B6801D5BD
:1057B000196002E07006FBD51980002323611546AD
:1057C000BAE72B681A1D2A601D6862680021284606
:1057D000FAF70EFD08B1401B606063682361002387
:1057E00084F84330A8E723692A4649464046D04713
:1057F0000130ABD023689B0713D4E068039B984229
:10580000B8BF1846A4E70123324649464046D04770
:1058100001309BD00135E36803995B1AAB42F2DC9F
:10582000EBE7002504F11906F5E700BFD29A00085E
:10583000E39A00082DE9F04F87B0174603938B6871
:105840005A1EB2F5AE7F83BF6FF4AE755B1902933B
:10585000002386BF40F25D138B6002930B688B467A
:10586000002543F4F0634BF81C3BCDE9045580461A
:105870000C465E46AA46A9460195A26852B13B680D
:105880001B784E2B64D8402B3CD8A3F12B01C8B217
:105890000E283AD9B9F1000F03D0236823F480739E
:1058A00023600AF1FF3ABAF1010F00F213815E455D
:1058B00000F205810125284607B0BDE8F08FA3F16D
:1058C00061020D2AE6D801A151F822F00B5A000816
:1058D0009558000895580008955800086B5A00081C
:1058E000435A00089558000895580008195A0008AE
:1058F00095580008955800089558000895580008D4
:10590000D1590008A3F14102DBE70E29C2D801A05A
:1059100050F821F0C359000895580008C3590008F1
:10592000575A00089558000871590008AD590008E9
:10593000AD590008AD590008AD590008AD5900082F
:10594000AD590008AD590008AD590008AD5900081F
:105950006E2B09D8602BB2D8542B77D0592B99D104
:10596000072D97D1082529E0742B6FD0792BF6E706
:105970002168C8051AD5029B21F08001216009F138
:1059800001091BB1013B01320293A260A368013BF4
:10599000A3602369013323617B68013B002B7B609B
:1059A00040F384803B6801333B6066E71AEB050FE8
:1059B0007FF470AF226822F4C072226006F8013BC7
:1059C000E4E7226810067FF565AF22F08002F4E775
:1059D000BAF1000F0ED1B9F1000F0ED1226802F416
:1059E000E061B1F5E06F08D122F4F06222604FF07F
:1059F000010AE3E7BAF1020F55D0012D02D0042DC0
:105A00007FF448AF0135EDB2D8E7BAF1010F7FF46A
:105A100041AF4FF0020AD1E77DB9B9F1000F7FF431
:105A20003CAF226802F4E061B1F5E06F7FF439AF7A
:105A300022F4F06222600125C0E7032DE2D0052D9B
:105A4000DEE7022D7FF426AF0325B7E7062D7FF4AE
:105A500021AF0725B2E7226891057FF51BAF22F43D
:105A600020722260CDF80490A8E7226802F4A061B9
:105A7000B1F5806F06D050057FF50CAFB9F1000F7E
:105A80003FF40FAF910558BF019922F4F06258BF5F
:105A9000A9EB010142F4C07258BFCDE9041622609F
:105AA0004FF000098AE74FF0030A87E7D4F8803106
:105AB00039464046984700283FF4DFAEEAE6D4F87E
:105AC0007C3116F8011D3A46404698472369013B50
:105AD0002361ECE66B1E062B25D8022D36D85E45D9
